:1000000000200020F90000000B0900000B0900008F
:100010000B0900000B0900000B0900000909000092
:100020000909000009090000090900000B09000086
:100030000B090000090900000B0900000D09000070
:100040000B0900000B0900000B0900000B09000060
:100050000B0900000B0900000B0900000B09000050
:100060000B0900000B0900000B0900000B09000040
:100070000B0900000B0900000B0900000B09000030
:10008000211000000B090000891200000B0900007C
:10009000311400000B0900000B0900000B090000DF
:1000A0000B0900000B0900000B0900000B09000000
:1000B0000B0900000B0900002D060000450600009A
:1000C0005D060000750600000B090000E116000047
:1000D0000B0900000B0900000B0900000B090000D0
:1000E000A5090000F50900007D0A0000390B000099
:1000F000BD0B00000B0900004A4B4CF2205210B51A
:100100001A804DF628121A80102223F80E2C00F0C7
:1001100005FC454B454A1A60454A5A60454B1A68EA
:1001200012F4807204D144490A604FF4A8521A6054
:10013000424B1A7802F00802D2B21AB11A7842F091
:1001400008021A7000233E4A3E483F4C02E019590B
:100150009950043399188142F9D33C4B3C4A002111
:1001600001E043F8041B9342FBD33A4B00221A6090
:10017000394B0A221A70394B24221A70A02203F834
:10018000012C374A137803F00203DBB2002BF9D0BD
:10019000334A137803F01003DBB2002BF9D1304A55
:1001A000137803F00C03082BFAD12E4B03221A709C
:1001B00040225A702A4A137803F02003DBB2002B46
:1001C000F9D0274A137803F04003DBB2002BF9D0B3
:1001D000254A264B1A60264B20221A70204A137893
:1001E00003F00C030C2BFAD1224B02221A60224A94
:1001F00043F8442C214B224A1A60072243F8042C6E
:1002000062B600F003FD0C4B1B68DB0702D51D48EE
:1002100000F0ECFC04F072FD00F080FB00F06CFBE1
:10022000FEE700BF0E20054038800440823F0400F6
:100230000100002B10D0034014D0034002D007402F
:1002400000E4FF1F48EAFF1F04AE000048EAFF1F5A
:1002500048F0FF1F08ED00E0005006400140064056
:10026000064006400440064000000301448004406C
:100270000040064048800440C010050014E000E043
:10028000FF760100F51A6351FFFFFFFFFFFFFFFF3D
:10029000FFFFFFFFFFFFFFFFFFFFFFFFFFFFFFFF6E
:1002A000FFFFFFFFFFFFFFFFFFFFFFFFFFFFFFFF5E
:1002B000FFFFFFFFFFFFFFFFFFFFFFFFFFFFFFFF4E
:1002C000FFFFFFFFFFFFFFFFFFFFFFFFFFFFFFFF3E
:1002D000FFFFFFFFFFFFFFFFFFFFFFFFFFFFFFFF2E
:1002E000FFFFFFFFFFFFFFFFFFFFFFFFFFFFFFFF1E
:1002F000FFFFFFFFFFFFFFFFFFFFFFFFFFFFFFFF0E
:10030000FFFFFFFFFFFFFFFFFFFFFFFFFFFFFFFFFD
:10031000FFFFFFFFFFFFFFFFFFFFFFFFFFFFFFFFED
:10032000FFFFFFFFFFFFFFFFFFFFFFFFFFFFFFFFDD
:10033000FFFFFFFFFFFFFFFFFFFFFFFFFFFFFFFFCD
:10034000FFFFFFFFFFFFFFFFFFFFFFFFFFFFFFFFBD
:10035000FFFFFFFFFFFFFFFFFFFFFFFFFFFFFFFFAD
:10036000FFFFFFFFFFFFFFFFFFFFFFFFFFFFFFFF9D
:10037000FFFFFFFFFFFFFFFFFFFFFFFFFFFFFFFF8D
:10038000FFFFFFFFFFFFFFFFFFFFFFFFFFFFFFFF7D
:10039000FFFFFFFFFFFFFFFFFFFFFFFFFFFFFFFF6D
:1003A000FFFFFFFFFFFFFFFFFFFFFFFFFFFFFFFF5D
:1003B000FFFFFFFFFFFFFFFFFFFFFFFFFFFFFFFF4D
:1003C000FFFFFFFFFFFFFFFFFFFFFFFFFFFFFFFF3D
:1003D000FFFFFFFFFFFFFFFFFFFFFFFFFFFFFFFF2D
:1003E000FFFFFFFFFFFFFFFFFFFFFFFFFFFFFFFF1D
:1003F000FFFFFFFFFFFFFFFFFFFFFFFFFFFFFFFF0D
:10040000FFFFFFFFFFFFFFFFFFFFFFFFFEFFFFFFFD
:1004100008B54EF64820074BC1F6FF701B1A062B95
:1004200000D808BD40F20003C0F20003002BF8D052
:100430009847F6E74BEAFF1F08B54EF648204EF600
:100440004823C1F6FF70C1F6FF731B1A9B1003EB24
:10045000D373591000D108BD40F20002C0F200026F
:10046000002AF8D09047F6E710B54EF64824C1F6BA
:10047000FF74237873B9FFF7CBFF40F20003C0F29B
:1004800000032BB14AF60460C0F20000AFF3008015
:100490000123237010BD00BF08B540F20003C0F275
:1004A00000034BB14AF604604EF64C21C0F2000046
:1004B000C1F6FF71AFF300804EF64820C1F6FF7021
:1004C00003682BB140F20003C0F2000303B1984768
:1004D000BDE80840FFF7B0BF10B508461446114606
:1004E00000F01CFD204610BD084608B500F0ECFCED
:1004F000012008BD00F050BD00F068BD00F07EBDD9
:1005000000F056BD044B00221A711A73034A4FF4CF
:100510007A7199601A60704764EAFF1FC8A60000EC
:1005200010B508461446114600F05EFE204610BD88
:10053000084608B500F02EFE012008BD00F060BEA0
:1005400000F078BE00F08EBE00F066BE044B0022C4
:100550001A711A73034A4FF47A7199601A607047DE
:1005600074EAFF1FE8A6000010B5084614461146BD
:1005700000F00EFF204610BD084608B500F0DEFE74
:10058000012008BD00F010BF00F028BF00F03EBF02
:1005900000F016BF044B00221A711A73034A4FF47D
:1005A0007A7199601A60704784EAFF1F08A70000FB
:1005B0002DE9F041002407460D4626463B190A2244
:1005C00019792846002300F0B7F82B6880462E21C1
:1005D0001B682846984701344044032C0644EDD15B
:1005E0002846F9790A22002300F0A6F88019BDE810
:1005F000F081FFFF30B58371044D9DF80C3005602C
:10060000044601714271C37130BD00BF28A70000CC
:10061000044B054A1A6000221A715A719A71DA71F4
:10062000704700BF94EAFF1F28A7000008B5034BDE
:1006300001221A60024B1B68984708BD0C710340E9
:10064000A4EAFF1F08B5034B01221A60024B5B6846
:10065000984708BD1C710340A4EAFF1F08B5034B6F
:1006600001221A60024B9B68984708BD2C71034019
:10067000A4EAFF1F08B5034B01221A60024BDB6896
:10068000984708BD3C710340A4EAFF1F054B0122B7
:100690001A60054B1A6822F400021A60034B00220C
:1006A0001A707047007003403C800440A0EAFF1FAE
:1006B000037B0122591103F01F0302FA03F3084AD6
:1006C00042F821308268002313604178054A535470
:1006D000D15C21B90133042BFAD1FFF7D7BF7047A2
:1006E00080E100E09CEAFF1F037810B504460BB1DF
:1006F000FFF7DEFF0023237010BDF8B506460C4659
:100700008F18002506E0336814F8011B1B6830467B
:1007100098472D18BC42F6D12846F8BD07B5054BC1
:100720001B88ADF80430036801A95B680222984772
:100730000EBD00BF30A70000F0B505468BB022B952
:100740000368C9B21B6898472CE0012A08BF0A2237
:1007500021B930228DF82520212413E02124B1FB7A
:10076000F2F002FB1011C9B2092901D8303100E0C2
:1007700037310AAF3E1906F8241C014610B1013C7E
:10078000E4B2ECE733B1013C0AAAE4B213192D221A
:1007900003F8242C2B6801AF5B6828463919C4F193
:1007A000220298470BB0F0BD002902DA49422D23FE
:1007B00000E000230A22FFF7BFBF10B50446FFF791
:1007C00093FF204610BDFFFF03480449044A00235D
:1007D000037004F07DBA00BFB4EAFF1FBB0700003E
:1007E00000E4FF1F08B1014B18607047C8EAFF1F03
:1007F0000C4B0D4A1B680D48002B08BF134693FB9A
:10080000F0F200FB12330A48424344F2A71000FB07
:1008100003200028B8BF00F10040024BB8BF0138E8
:1008200018607047C8EAFF1F24D95B071DF3010059
:10083000ECF4FFFF10B5044630B1FFF7D9FFB0FB71
:10084000F4F303FB140010BD10BD884210B504463C
:1008500003DA081AFFF7EEFF0419204610BDFFFF68
:100860001C4B60221A70E1225A701B4B1B4A1978EC
:100870001B4B082901D1012102E00A2903D13921AA
:100880001160132206E00C2901D1352100E03D2141
:10089000116012221A60134B1A78134B02B1012215
:1008A0001A60124B1A78124B012A01D880220CE0F0
:1008B000042A01D8842208E0082A01D8852204E00D
:1008C000102A01D8862200E087221A60094B0122F3
:1008D0001A7070470040074004E4FF1F08B003404F
:1008E0000CB00340CDEAFF1F20B0034005E4FF1F1A
:1008F00024B00340CCEAFF1F08B502F0AFFA02F0C3
:10090000CBFA01F0BDFBFAE7FEE7FEE7024B1A68FF
:1009100001321A60704700BF58EBFF1F7047FFFF9E
:10092000024A1368181810601846704708E4FF1F41
:10093000002300E00133C25C002AFBD11846704757
:1009400010B50023B0FBF2F402FB1400092801D813
:10095000303000E03730C85420460CB10133F1E7A5
:10096000CA185470224605E0885CCC5C8C54C8548C
:100970000132013B9A42F7DB084610BD084B4FF4A9
:1009800080721A604FF400721A604FF480621A602D
:100990004FF400621A604FF480521A60704700BF33
:1009A00004E100E0114B10B51C68E0041C6004D5A4
:1009B0000F4BDA680AB1DB689847A10404D50C4BE9
:1009C0001A690AB11B699847A20604D5084B1A6E2A
:1009D0000AB11B6E9847E30606D5054BD3F8842071
:1009E00012B1D3F88430984710BD00BFA0900440E6
:1009F000D0EAFF1F1F4B10B51C68E0031C6004D534
:100A00001D4B1A680AB11B689847A10304D51A4BFD
:100A10005A680AB15B689847E20704D5164B1A6C0E
:100A20000AB11B6C9847A30704D5134B5A6C0AB143
:100A30005B6C9847200704D50F4B9A6C0AB19B6CEE
:100A40009847610704D50C4BDA6C0AB1DB6C984708
:100A5000220304D5084B5A6E0AB15B6E98476303B4
:100A600006D5054BD3F8802012B1D3F880309847D3
:100A700010BD00BFA0A00440D0EAFF1F2C4B10B552
:100A80001C6820071C6004D52A4B5A6A0AB15B6AAD
:100A90009847E10604D5274B9A6A0AB19B6A9847A2
:100AA000620604D5234BDA6A0AB1DB6A984723064B
:100AB00004D5204B1A6B0AB11B6B9847A00604D5CE
:100AC0001C4B5A6B0AB15B6B9847E10704D5194B75
:100AD000DA6B0AB1DB6B9847A20704D5154B9A6D08
:100AE0000AB19B6D9847630704D5124BDA6D0AB1C2
:100AF000DB6D9847A00504D50E4BDA6E0AB1DB6EAC
:100B00009847E10504D50B4B1A6F0AB11B6F984744
:100B1000620504D5074B5A6F0AB15B6F98472305EE
:100B200004D5044B9A6F0AB19B6F984710BD00BF64
:100B3000A0B00440D0EAFF1F1E4B10B51C68E007B0
:100B40001C6004D51C4B9A680AB19B689847210623
:100B500004D5194B5A690AB15B699847E20604D576
:100B6000154B9A690AB19B699847630704D5124BE4
:100B7000DA690AB1DB699847200704D50E4B1A6A77
:100B80000AB11B6A9847A10704D50B4B9A6B0AB1AF
:100B90009B6B9847A20604D5074B1A6D0AB11B6DD3
:100BA0009847630604D5044B5A6D0AB15B6D9847AC
:100BB00010BD00BFA0C00440D0EAFF1F094B10B514
:100BC0001C68A2071C6004D5074B9A6E0AB19B6E85
:100BD0009847E30704D5044BDA6F0AB1DB6F9847F7
:100BE00010BD00BFA0D00440D0EAFF1F044B054950
:100BF00000221A600A60044A106010221A607047CE
:100C000014D0034004D0034000D0034010B5FFF7D8
:100C1000B5FE114B114A124C00204BF6FF711860C3
:100C20005960282313609360136193611362936288
:100C300013639363092222600A4C20600A48016012
:100C40000A490B608B600A4B1A60FFF709FEBDE88A
:100C5000104001F05BB800BF048003400C800340EB
:100C60000080034004900340089003400C90034030
:100C700000900340212810B518D80D4A52F83030A2
:100C800093F880423CB1012211B183F8802010BD5D
:100C900083F8002110BD02EBC00043681A6811B14F
:100CA00042F0030201E022F002021A6010BD00BF10
:100CB00034A70000212816D80B4A02EBC0030129F3
:100CC0005B6852F8302004D182F880124FF4A2728F
:100CD00008E0002082F8800211B94FF4807201E030
:100CE00040F203121A60704734A7000038B53B4B3E
:100CF0001A7801250029044605FA02F301DC0021D7
:100D000002E0994205D32946FFF7B4FF2046294661
:100D10005FE00338C3B2012B94BF314B314B1B68EA
:100D200001334B4323FA02F3142849D8DFE800F0DB
:100D30000B11171D48482329484848484848484847
:100D4000482F353B4100284A13604FF45172274B1E
:100D500034E0274A13604FF45172264B2EE0264AA6
:100D6000136040F24442254B28E0254A136040F2CC
:100D70004442244B22E0244A136040F24442234B75
:100D80001CE0234A136040F24442224B16E0224A00
:100D9000136040F24442214B10E0214A136040F2BC
:100DA0004442204B0AE0204A136040F244421F4B69
:100DB00004E01F4A13601F4B40F244421A6038BDE2
:100DC0007F292046D4BF00210121FFF753FF204691
:100DD0000121BDE83840FFF76DBF00BF0CE4FF1FE5
:100DE0000890034008800340109003403090044076
:100DF0001890034034900440488003401CC00440D5
:100E00003080034010C00440208003400CB00440F8
:100E10002880034010B004403880034014C00440D0
:100E20004080034018C004401080034004B00440D8
:100E30001880034008B00440184B1A6842F48062DE
:100E40001A60174A00231370164A1370164A13705B
:100E5000164A1370164A1370164B40F213321A607A
:100E60004FF451725A60144BC0F344321A70C0F3FD
:100E700047125A7000F01F00104A98720221042392
:100E800013705174D3740E4B88221A703C2203F8ED
:100E90000D2C0C4B4FF480321A60704734800440A4
:100EA000DEEBFF1F5DEBFF1FE0EBFF1FDFEBFF1F24
:100EB0005CEBFF1F40A0044000A0064002A00640DB
:100EC00010A0064000E100E00E4B1B685A0570B50B
:100ED000064616D50C4B0D4D1C7801343F2C88BFAF
:100EE000002401E001F0CCF82B78A342FAD0084BA3
:100EF0001E55084B01221A70034B1C70064BBC2276
:100F00001A7070BD34800440E0EBFF1FDFEBFF1F61
:100F10005EEBFF1F5CEBFF1F03A00640184B1B6836
:100F20002DE9F0478A465905064627D50546154F4F
:100F3000DFF860801BE03C7898F8009001343F2C8B
:100F400088BF0024A14508D015F8012B0E4B1A5577
:100F50000E4B01221A703C7009E00D4BBC221A7036
:100F600001F08EF898F800304B45F9D0ECE706EB2D
:100F70000A039D42DFD3064BBC221A70BDE8F087FE
:100F800034800440E0EBFF1F5EEBFF1F5CEBFF1FB4
:100F900003A00640DFEBFF1F10B5044C01E001F099
:100FA0006FF82378002BFAD110BD00BF5CEBFF1F58
:100FB000044B1878044B1B78984238BF4030C01A55
:100FC000704700BFDEEBFF1F5DEBFF1F084B094AB8
:100FD00019781378994208D00133DBB23F2B88BFD0
:100FE00000230549C85C137070474FF0FF3070470D
:100FF000DEEBFF1F5DEBFF1F9EEBFF1F054B1A781B
:10100000054B1B789A4202D0044AD05C70474FF0DF
:10101000FF307047DEEBFF1F5DEBFF1F9EEBFF1FF6
:10102000F0B52F4B1B7813F0300F21D072B62D4B3B
:10103000197831B90F3B40221B782B4B1A7062B6DE
:1010400016E062B6294B2A4C1A782A4B2A4D18789A
:10105000531CDBB23F2B88BF0023267883421CBF82
:10106000EE541A46013911F0FF01F1D11F4B1A70ED
:10107000224B1B7819465BB2002B20DA184A1378F2
:1010800018061CD51E4B1F4E1F781F4B184D1B7882
:101090001E4CBB420AD00133DBB23F2B88BF00237A
:1010A0001078F05C287020780728F2D9164A13705F
:1010B0000B4B1B781B0602D5104B7C221A7001F0DB
:1010C0004003DBB25BB1064B1B7803F04003DBB29D
:1010D0002BB10F4B00221A70084B3C221A70F0BD46
:1010E00004A0064016A0064011A00640DEEBFF1F3C
:1010F00007A006405DEBFF1F9EEBFF1F03A006400D
:10110000E0EBFF1F5EEBFF1FDFEBFF1F14A00640AD
:101110005CEBFF1F154B1A6842F400621A60144A18
:1011200000231370134A1370134A1370134A137079
:10113000134A1370134A40F2133111604FF4517186
:101140005160114AC0F344311170C0F3471100F0EF
:101150001F0051709072937013740C4B2C221A70F4
:101160000B4B4FF480221A60704700BF348004405C
:101170004BECFF1FE2EBFF1F4DECFF1F4CECFF1F82
:10118000E1EBFF1F0CB0044000B0064003B0064086
:1011900000E100E00E4B1B681A0570B5064616D537
:1011A0000C4B0D4D1C780134272C88BF002401E026
:1011B00000F066FF2B78A342FAD0084B1E55084B6F
:1011C00001221A70034B1C70064BAC221A7070BDC2
:1011D000348004404DECFF1F4CECFF1FE3EBFF1F7E
:1011E000E1EBFF1F03B0064038B54518044603E0A5
:1011F00014F8010BFFF7CEFFAC42F9D138BDFFFF69
:1012000010B5044C01E000F03BFF2378002BFAD12D
:1012100010BD00BFE1EBFF1F044B1878044B1B7897
:10122000984238BF4030C01A704700BF4BECFF1FD8
:10123000E2EBFF1F084B094A19781378994208D04E
:101240000133DBB23F2B88BF00230549C85C137014
:1012500070474FF0FF3070474BECFF1FE2EBFF1F72
:101260000BECFF1F054B1A78054B1B789A4202D0F6
:10127000044AD05C70474FF0FF3070474BECFF1FC3
:10128000E2EBFF1F0BECFF1F10B5224B1B7803F0A6
:101290002003DBB27BB1204B204A18781378204919
:1012A0000133DBB209783F2B88BF00238B4202D089
:1012B0001C49C85413701C490B7818465BB2002BAC
:1012C00016DA144B1B781B0612D5184B184A1C78DB
:1012D00013789C4202D16C230B7009E00133DBB21E
:1012E000272B88BF00231349CC5C0B490C7013706B
:1012F00000F04003DBB25BB1064B1B7803F0400308
:10130000DBB22BB10C4B00221A70074B2C221A7047
:1013100010BD00BF04B0064007B006404BECFF1FF5
:10132000E2EBFF1F0BECFF1F03B006404DECFF1F6D
:101330004CECFF1FE3EBFF1FE1EBFF1F0E4B1B68A5
:10134000DA0470B5064616D50C4B0D4D1C780134E9
:10135000272C88BF002401E000F092FE2B78A342E6
:10136000FAD0084B1E55084B01221A70034B1C7013
:10137000064BAC221A7070BD34800440BAECFF1FDB
:10138000B9ECFF1F50ECFF1F4EECFF1F03C00640DF
:1013900038B54518044603E014F8010BFFF7CEFFFB
:1013A000AC42F9D138BDFFFF10B5044C01E000F0AC
:1013B00067FE2378002BFAD110BD00BF4EECFF1F53
:1013C000044B1878044B1B78984238BF4030C01A41
:1013D000704700BFB8ECFF1F4FECFF1F084B094AD6
:1013E00019781378994208D00133DBB23F2B88BFBC
:1013F00000230549C85C137070474FF0FF307047F9
:10140000B8ECFF1F4FECFF1F78ECFF1F054B1A785D
:10141000054B1B789A4202D0044AD05C70474FF0CB
:10142000FF307047B8ECFF1F4FECFF1F78ECFF1F39
:1014300010B5224B1B7803F02003DBB27BB1204BAD
:10144000204A1878137820490133DBB209783F2B02
:1014500088BF00238B4202D01C49C85413701C491A
:101460000B7818465BB2002B16DA144B1B781B0660
:1014700012D5184B184A1C7813789C4202D16C2361
:101480000B7009E00133DBB2272B88BF002313491F
:10149000CC5C0B490C70137000F04003DBB25BB105
:1014A000064B1B7803F04003DBB22BB10C4B002240
:1014B0001A70074B2C221A7010BD00BF04C00640E2
:1014C00007C00640B8ECFF1F4FECFF1F78ECFF1F72
:1014D00003C00640BAECFF1FB9ECFF1F50ECFF1F22
:1014E0004EECFF1F1FB572B6124B70221A70124AD3
:1014F000412111700F2102F8011C80221A701A7804
:101500001206FCD562B60D4B01A918680A22FFF736
:1015100017FA0B48002301AA9A5C2AB100EB430199
:1015200001330A2B4A80F6D10133054A5B00137060
:1015300005B000BD00000240070002400800024064
:1015400096E4FF1FF0B50C4B0C4C1A7842F00205E4
:1015500004EBC50682F00102706009481A70067833
:10156000002E0CBF8827C82747EA014186F00106F4
:1015700044F835100670F0BD24EDFF1F00E0FF1F9A
:101580009CEDFF1F431E032B10B510D872B6094AFD
:1015900052F8230010B1416842F82310064A01882E
:1015A00032F81340611A22F8131062B610BD002001
:1015B00010BD00BF14EDFF1F34EFFF1F01380328DB
:1015C0000BD8074B53F8203072B6002001E05B685F
:1015D0000130002BFBD162B670470020704700BF7E
:1015E00068EDFF1F70B572B6184E194C01239A1999
:1015F00012F8012C02F00802D2B2E2B19900144AAA
:1016000054F831502DB902EB431308305860114B98
:1016100009E041F0010154F8315065B902EBC10312
:10162000083058600C4B42F831300C4B1A78013AB4
:101630001A7062B670BD0133052BD8D162B6074B64
:1016400000221A70BDE8704000F0E4BB44A800001E
:1016500000E0FF1F88004000C800400092EDFF1F1F
:10166000431E032B30B532D84001194A40F0100018
:10167000101872B6174CE25C032A09D8DFE802F0B2
:10168000160218050830022213E00830042210E088
:101690001148124A50F8234014B940F8231002E0D0
:1016A00052F82300416042F823100FE0032200E0CB
:1016B0000522E25410F0080F01F108030A88436084
:1016C0000CBF8823C82343EA0243036062B630BDDF
:1016D00000E0FF1FD0ECFF1F68EDFF1F78EDFF1F3C
:1016E0002DE9F74FA34EA44C357805F00403DBB287
:1016F000ABB1A24B1B7883B1A14A137823B1013B54
:10170000DBB2137003B900BE9E4A13782BB1013BC4
:10171000DBB213700BB900F091FC0423337005F0B9
:101720000802D2B2002A00F07B82974B1B781D0979
:101730004FEA930940F0F98104EBC903586854F863
:101740003930C3F38303013B0C2B00F2EB81DFE85C
:1017500013F0A401A401E901E901E901E901E901AA
:10176000E901C001E901E901E9010D004368874A87
:1017700001685360864B874844F83930864D1160C4
:10178000002303600120287089B240F28165A942DC
:101790002361A36119D8B1F5D06F80F02881B1F52C
:1017A000817F00F0D88006D8802900F0BE80822991
:1017B00040F03981BDE040F20230814200F0088102
:1017C000B1F5A06F40F02F8131E1B1F5106F10D06D
:1017D00004D8B1F5086F40F02681A0E042F2210064
:1017E000814200F0578100F50070814240F01B817A
:1017F00015E19278614B604D1A702B6A180603D57B
:10180000686A083800F006FB644A08359542F4D14E
:10181000DFF8B091DFF8B0B10025A846CA4655F808
:10182000090005E04368009300F0F4FA009B1846B5
:101830000028F7D15A4B4AF8050045F80B00E85844
:1018400007E042680093019200F0E4FA019A009BDD
:1018500010460028F5D15851524BE850524B23F80E
:101860001800524B18F80320023A032A08D8DFE880
:1018700002F002040204002200E0012203F8082022
:1018800008F101080435B8F1040FC8D1484BDFF85E
:101890003C9100221A7001259846464B05EB09023F
:1018A000EB1812F8012C9B001A7002F00802D2B259
:1018B0003AB300F091FAAB0038B104EB45120830AE
:1018C00050603D4A44F8332006E044F8330098F86D
:1018D0000030013388F8003000F07EFAAB0043F0AE
:1018E000010338B104EBC30208305060284A44F8C1
:1018F000332006E044F8330098F80030013388F8CC
:101900000030AA0042F00201013542F00302002338
:10191000052D44F8313044F83230BED187E0174B02
:10192000264D1B782B70034684E0244D2B706B7082
:101930007FE09288042A00D975E0204D2B706B70EF
:101940001F4B9200D3181B7803F00203DBB2002B6D
:101950006FD028706DE0918801F07F03042B62DC6A
:10196000538803B15FE0164A89008A18117821F084
:10197000020156E08020074000E0FF1F9BEDFF1FA3
:1019800025EDFF1FB0EDFF1F9020074088EDFF1FE2
:10199000C8004000BCECFF1F9CEDFF1F68E0FF1F6C
:1019A00068EDFF1F78EDFF1F34EFFF1FD0ECFF1F26
:1019B00092EDFF1F30C801108800400093EDFF1F1B
:1019C000C020074014EDFF1FC0ECFF1F44A800001B
:1019D000918801F07F03042B25DC538803B122E0BA
:1019E000A04A89008A18117841F0020119E0518853
:1019F0009D4B928853F8085CA3F10C009DB133F81D
:101A00000CCC8C4509D133F80ACC944505D1090A90
:101A100003290CBF2B7803890CE00C33EAE791789B
:101A2000924A117003E08F4B0F221A7032E01D466C
:101A300000E002238E4AB2F806904B4538BF994623
:101A4000B9F1400F34BFC8464FF040082846414620
:101A5000FFF778FDB9EB0809454403D1B8F1400F11
:101A600007D017E0B9F1400F34BFC8464FF0400827
:101A700000E0C84628464146FFF764FDB9EB080977
:101A8000454402D1B8F1400F04D17A4B7A4A1D6027
:101A9000A2F800900122794B43E0754B1A8842F27C
:101AA00021039A4211D1764A0023C15C9954013333
:101AB000072BFAD1724B1B68862B02D1714B0F2278
:101AC0001A7000200146FFF73DFD6F4B44F8393096
:101AD00028E0684BD3F80080B8F1000F18D0DFF889
:101AE0009891B9F800A0BAF1400F34BF554640258F
:101AF00040462946FFF726FDC5EB0A039BB2A9F82D
:101B000000300BB9402D01D108EB0503594A136091
:101B1000574B1A88B2F5A06F04D100225A709A78F8
:101B20005A4B1A700122554B6DE004EBC90803F0C3
:101B30000803D8F80420013DD9B2A2F10800EDB2A3
:101B4000002937D000F066F95148524B50F8251063
:101B5000F1B14A6840F8252001F10802C8F80420D4
:101B60005A5D032A0BD8DFE802F0020406080322BC
:101B700004E0022202E0052200E004225A5518F097
:101B8000080F0A880CBF8823C82343EA024342E0B7
:101B90005A5D032A07D8DFE802F040400204002221
:101BA00006E0012204E018F0080F0CBF0222032215
:101BB0005A5532E054F839301B0C22F8083C23B354
:101BC00022F8061C42F8041C334A344952F82570A6
:101BD00017B942F8250002E051F825205060304A3C
:101BE00041F8250032F815105B1822F8153000F086
:101BF000F3F818B10830C8F8040006E0294B44F89F
:101C000039001A7801321A7007E01F4B264A18F083
:101C1000080F08BF134644F839300823337063E5D2
:101C2000E90751D515492048204C02230B70204B61
:101C30001A70204B186098601F481A61D8609A612A
:101C40005C60084B0D2018701C48FF23037000F8DF
:101C5000083C02741A4A13701A4B9F221A7001230F
:101C60000B704AE0C020074054A80000C0EDFF1FE1
:101C700088EDFF1FBCECFF1F90EDFF1F9420074075
:101C80003CEFFF1F25EDFF1FC800400098200740D4
:101C900068EDFF1FD0ECFF1F14EDFF1FC0ECFF1F0E
:101CA00034EFFF1F92EDFF1F88004000D4ECFF1FB0
:101CB00024EDFF1F00E0FF1F28EDFF1F88200740D5
:101CC0008C200740842007402B0605D50C4B0D22A5
:101CD0001A70802203F8402C05F00203DBB22BB10E
:101CE000084B1A781A70022203F8082C05F0100528
:101CF000EDB215B1044B10221A70BDE8FE8F00BF83
:101D0000C0200740882007408020074008B5FFF723
:101D1000E9FB00231B491A465A50C8180833882B80
:101D20004260F9D1184B1A6842F480221A60174BAE
:101D300080221A701978154A0906FBD4114B1449F0
:101D4000C3F307200870C3F307401B0E08750B761A
:101D5000FF2301F81C3C01F8143C01F88C3C13787B
:101D600043F0400313700021012302F8783C02F88D
:101D70000C1C02F8883C074B08221A60064B102204
:101D80001A7008BD00E0FF1F348004400C2107409A
:101D90009C20074004E100E0082107400846114666
:101DA00000F0AEB8084600F013B900F01BB900F01F
:101DB0007BB800F051B800F095B8FFFF044B00224B
:101DC0001A711A73034A4FF47A7199601A60704756
:101DD000A0EDFF1FA8A8000072B60C4A1168B1FA66
:101DE00081F30B2B02D962B6002070474FF0004000
:101DF00020FA03F021EA0001116062B6044948228A
:101E00005343C8180022CA5042607047ACE4FF1F19
:101E1000A0E0FF1F0C4B4822C31AB3FBF2F30B2BBD
:101E200011D80A4A127822B1094A12780AB1FFF78A
:101E3000D9BB72B6074A4FF0004121FA03F311688B
:101E40001943116062B67047A0E0FF1F92EDFF1FBB
:101E50009BEDFF1FACE4FF1F38B5114C23684BB15D
:101E60000F4D28684288811801320C7A01888A4215
:101E700012D30CE00B4B1B7813B94FF0FF340CE07E
:101E80000320FFF77FFB20600028E9D1F5E7FFF78B
:101E9000C1FF00232B6000E04280204638BD00BF18
:101EA000BCEDFF1F9BEDFF1F10B50C4C23681BB151
:101EB0000A4B1B686BB902E0094B1B7813B94FF052
:101EC000FF3010BD0320FFF75DFB20600028EFD13D
:101ED000F5E75A889B18187A10BD00BFBCEDFF1FAC
:101EE0009BEDFF1F044B9888044B1B681BB11A889D
:101EF0005B88D31AC018704734EFFF1FBCEDFF1F7B
:101F00002DE9F8432D4B2E4DDFF8C08001220C4601
:101F10001A7006464BE02B682BBBDFF8A0904AF204
:101F2000F92798F8003013B9244A137014E00420FC
:101F3000FFF744FB072808D8012389F80030FFF792
:101F40004BFF286078B989F80000013F1D4B01D094
:101F50001A782AB101221A704FF0FF30BDE8F883D9
:101F600000F08EF8DDE72968164A488800231370D0
:101F7000C0F14002944238BF224600F108078018A1
:101F8000CF194880A41A02E0F05CF8540133934260
:101F9000FAD1F6184B883F2B06D940230B8004203A
:101FA000FFF75EFB00232B60074B05221A70002C05
:101FB000B1D1024B20461C70BDE8F883B1EDFF1F84
:101FC000B4EDFF1FB8EDFF1FB0EDFF1F9BEDFF1F2E
:101FD00007B502AB012103F8010D1846FFF790FF8A
:101FE0000EBDFFFFF8B5114B1B78EBB1104E114B36
:101FF0003468114D01271F704CB1638800272F7082
:10200000042023802146FFF72BFB376009E0FFF710
:10201000E3FE014620B104202C70FFF721FB00E015
:102020002F70044B00221A70F8BD00BF9BEDFF1FFC
:10203000B4EDFF1FB1EDFF1FB0EDFF1F38B50D4B25
:102040001D78ADB90C4C216831B14B8804200B8050
:10205000FFF706FB256038BDFFF7BEFE014620B145
:102060000420BDE83840FFF7FBBA044B01221A7088
:1020700038BD00BFB1EDFF1FB4EDFF1FB0EDFF1F76
:102080007047FFFF38B50C2002F064FE044650B1E3
:1020900006484FF48075206000212A4603F056FA66
:1020A00000236560A360204638BD00BF44EFFF1FDA
:1020B0008B684A68934204D20A68D0548B68013313
:1020C0008B6000207047FFFF38B58368044623B15A
:1020D0000268D31813F8013C1BB100202146FFF71A
:1020E000E7FFA06802F036FE054638B1044903F068
:1020F000A3FD00232360204602F034FE284638BDAD
:1021000044EFFF1F08B102F02DBE70478068704792
:10211000C1607047036810B59B690C469847036817
:1021200021461B68984710BDF8B505460E46174670
:10213000002407E02B682846DB689847431C03D03F
:1021400030550134BC42F5D12046F8BDC368013397
:1021500010B5044617D10CE023682046DB68984789
:102160002028014605DD236820465B69C9B29847EF
:1021700009E0236820469B69984703689B68984755
:102180000028E9D110BD012010BDFFFF73B5044642
:10219000C068421C03D04FF0FF33E3601AE00E4BDF
:1021A0001A680192019E1D4606F5FA7622682046BD
:1021B0009369984702689368984720B92B68009301
:1021C000009BB342F2D3236820469B69984703687B
:1021D000DB6898477CBD00BF58EBFF1F38B504464D
:1021E00008460D46FEF7A4FB236802465B682046BE
:1021F0002946984738BD08B503681B68984708BD4D
:1022000010B5202002F0A6FD044618B100212022BE
:1022100003F09CF9204610BD70B505460C4618E049
:1022200094F910306668002B04DBE16811B1284690
:10223000FFF7F2FF237C052B03D1A06908B102F060
:1022400091FD206808B102F08DFD204602F08AFD64
:102250003446002CE4D170BD2DE9F04F036885B001
:10226000DB6882460F4698470646013002D14FF0A0
:10227000FF30D6E02D2E0AD1DAF800305046DB6868
:102280009847411C0646F2D04FF0FF3901E04FF06D
:102290000109A6F130030024092B0DD80A25DAF82C
:1022A00000305046DB689847A0F13003303E092BE0
:1022B00005FB04640646F2D9452E08D0652E06D0EB
:1022C0002E2E04D009FB04F4BC610323A1E02046B8
:1022D00002F0B6F92E2E04460D4628D1DAF8003069
:1022E0005046DB6898474FF00008064600224E4BE8
:1022F0002046294602F00AFA0446A6F130000D46AF
:1023000002F09EF902460B462046294602F04CF8A0
:10231000DAF800300446DB6850460D469847A0F1D5
:102320003003092B08F1FF380646DFD901E04FF0F2
:102330000008652E01D0452E32D1DAF80030504623
:10234000DB6898472B28064606D1DAF8003050465D
:10235000DB68984706460AE02D2808D1DAF80030F5
:102360005046DB6898474FF0FF0B064601E04FF000
:10237000010B4FF0000C0A220DE002FB0C3CDAF8D6
:1023800000305046DB680192CDF800C09847DDF878
:1023900000C0019A0646A6F13003092BEDD903E0EF
:1023A0004FF0010B4FF0000C4846CDF800C002F092
:1023B00047F922462B4602F0A9F9CDE90201404631
:1023C00002F03EF9DDF800C080466046894602F022
:1023D00037F9044658460D4602F022F902460B46EC
:1023E0002046294602F092F902460B4640464946ED
:1023F00001F0DAFF02460B4600200B4900F06EFEAA
:102400000B460246DDE9020102F080F9C7E9060148
:1024100004233B74DAF8003050465B69F1B2984708
:10242000002005B0BDE8F08F0000244011B189699B
:10243000FEF7BAB9084670472DE9F0410746002972
:1024400051D08D69CE69284631460022002302F022
:10245000CFFB28B138462849FFF7C0FE06F10046F9
:102460003146284602F014FC04460A220023214685
:102470003846FEF761F921493846FFF7AFFE20469E
:1024800002F0CEF802460B462846314601F08AFF9C
:1024900017A3D3E9002301F087FF052604460D4664
:1024A0000022174B2046294602F030F90D4604461B
:1024B00002F0EEFB80460A22002341463846FEF732
:1024C0003BF9404602F0ACF802460B46204629464E
:1024D00001F068FF0022002304460D4602F07EFB57
:1024E00008B9013EDCD10020BDE8F081AFF30080E7
:1024F000F168E388B5F8D43EE8A8000089A9000097
:1025000000002440AFF30080F8B50368DB6806469E
:102510000F46984722283ED105233B74FFF7B2FDB2
:102520000446002837D026E0E8B221E03368304680
:10253000DB689847421C054600D123E0662810D08E
:1025400006DC5C2814D0622809D0222813D10FE0C1
:1025500072280AD074280AD06E280CD103E0082013
:1025600006E00C2004E00A2002E00D2000E0092033
:102570002146FFF79DFD33683046DB689847431CD2
:10258000054603D12046FFF7BDFD04E0222805D013
:102590001F2809DC02E04FF0FF30F8BD2046FFF7AE
:1025A00093FDB8610020F8BD5C28BDD1BEE7FFFFF8
:1025B00038B50D4621490446FFF710FEA5BB36E0AD
:1025C0001F2908D9222906D05C2904D02046FFF70C
:1025D00012FE013528E05C212046FFF70CFE15F8BD
:1025E000011B0C2913D006D8092919D00A2911D0AA
:1025F000082919D108E0222904D05C2902D00D292C
:1026000012D10AE020460DE0204662210AE0204671
:10261000662107E020466E2104E02046722101E099
:1026200020467421FFF7E7FD29780029C8D120460C
:102630002221FFF7E0FD002038BD00BFEAA800001E
:102640008969FFF7B5BF0368DB6810B50446984792
:102650000146013003D02029236802DD04E008464A
:1026600010BDDB682046F2E720465B69C9B2984797
:10267000002010BD036810B5DB68044602E0236843
:10268000DB6820469847431CF9D110BD03682DE94B
:10269000F047DB6804460F46914698477B2800D0F8
:1026A0004DE007233B742046FFF7CDFF236820460B
:1026B000DB6898477D28014602D10020BDE8F087FD
:1026C000226820465269C9B290474FF0FF084FF088
:1026D000000A38E0B8F1000F01D0FD6001E075603C
:1026E000AE602046FFF7AFFF20462946FFF70CFFFC
:1026F000013024D02046FFF7A6FFAB69C5F818A02B
:102700002B6023682046DB6898473A2817D120467B
:10271000FFF799FF204629464A4600F01BF8013092
:102720000DD02046FFF78FFF23682046DB689847CF
:102730002C282E464FF0000805D07D28BDD04FF044
:10274000FF30BDE8F087FFF75BFD05460028C1D1EB
:10275000F5E7FFFFF7B504460E461746FFF773FF90
:10276000013000D175E023682046DB689847421CA1
:1027700005466ED0236820465B69E9B29847222D52
:1027800004D120463146FFF7BFFE64E02D2D03D073
:10279000A5F13003092B04D820463146FFF75CFD34
:1027A00059E05B2D05D1204631463A4600F05AF8F3
:1027B00051E07B2D05D1204631463A46FFF766FFB2
:1027C00049E06E2D15D102AD002345F8083D236880
:1027D00004221B692046694698470428024638D1DE
:1027E00068461D4903F086FA002832D1022333746B
:1027F00031E0662D14D1002300938DF80430236856
:1028000005221B69204669469847052821D168465C
:102810001249052203F06EFAD8B9307430761AE006
:10282000742D16D102AD002345F8083D236804221B
:102830001B692046694698470428024609D1684624
:10284000074903F057FA20B901233374FF23337685
:1028500001E04FF0FF30FEBDECA80000F1A8000041
:10286000F7A800002DE9F8430368DB6804460F462B
:10287000914698475B2800D033E006233B742046FE
:10288000FFF7E1FE23682046DB6898475D28014694
:1028900002D10020BDE8F883226820465269C9B2FF
:1028A00090474FF0FF0820E0B8F1000F01D0FD6025
:1028B00001E07560AE602046FFF7C5FE2046294660
:1028C0004A46FFF747FF804658B92046FFF7BBFE50
:1028D00023682046DB6898472C282E4605D05D28C3
:1028E000D7D04FF0FF30BDE8F883FFF789FC0546ED
:1028F0000028D9D1F5E7F8B5064617460D4601B9C7
:1029000011E0FFF77DFC044668B12846FFF79BFE07
:10291000284621463A46FFF71DFF013004D13046D4
:102920002146FFF779FC00242046F8BD0022FFF77E
:10293000E2BF38B5054639B3CC687B21FFF75BFCB5
:10294000013019D14FF0FF3038BD28462168FFF71C
:102950002FFE0130F6D03A212846FFF74CFC01301B
:10296000F0D02846214600F011F80130EAD0646822
:1029700024B128462C21E1E7002CE6D17D21284610
:10298000FFF739FC0130DDD0002038BD08B5002943
:1029900024D00B7C072B23D8DFE803F00608040CB7
:1029A0001014181C0F4902E00F4900E00F49FFF70F
:1029B00015FC08BDBDE80840FFF738BDBDE808407C
:1029C000FFF73ABDBDE80840FFF73ABEBDE8084052
:1029D00000F00EB8BDE80840FFF7ABBF084608BDE1
:1029E000002008BDECA80000F1A80000F7A8000036
:1029F00038B50546D9B1CC685B21FFF7FCFB013047
:102A00000DD14FF0FF3038BD28462146FFF7BEFFFD
:102A10000130F6D0646824B128462C21EDE7002C63
:102A2000F2D15D212846FFF7E6FB0130E9D0002016
:102A300038BD1046FFF7AABF38B5CC68154634B18B
:102A40002068294602F0E6FF08B16468F7E72046EF
:102A500038BDFFFF07B5002100910A460B4602482A
:102A6000FDF7C8FD0EBD00BFC4EDFF1F08B5132064
:102A70000121FEF71FF912200121FEF71BF9142096
:102A80000121FEF717F915200121FEF713F9112096
:102A90000121FEF70FF916200121FEF70BF917208F
:102AA0000121FEF707F90D200121BDE80840FEF7DE
:102AB00001B970B50C46C1B2132015461E46FEF78B
:102AC000D9F81220E1B2FEF7D5F81420E9B2FEF7EA
:102AD000D1F81520F1B2BDE87040FEF7CBB803681D
:102AE000002B10B50C460ADD0B6801200021002BDD
:102AF00002DD02460B460BE00A4603460EE05B424F
:102B000003600B6800200121002B05DD0A46034607
:102B1000BDE81040FFF7CDBF02460B46FFF7C9FFE7
:102B200023685B42236010BD10F1FE0F03DBFF281A
:102B3000A8BFFF2070476FF0FE00704710F1FE0F36
:102B400007B50B46024604DBFF28B4BF0146FF2150
:102B500001E06FF0FE0113F1FE0F009104DBFF2B8B
:102B6000B4BF1946FF2101E06FF0FE01019103207F
:102B7000094900F04BF9684601A9FFF7B0FF16209C
:102B80000099FEF7B3F817200199FEF7AFF811206E
:102B90000121FEF76FF80EBDFCA80000C0B20121B4
:102BA000FEF768B810B50446102002F0D3F80022F2
:102BB0000271044A846002604FF0FF32C260024A30
:102BC000106010BDC8A80000D8EDFF1F0149032008
:102BD00000F01CB90AA900000149032000F016B951
:102BE0000AA90000014608B50A480B4AFFF724FF6E
:102BF000014630B90120094900F008F94FF0FF30D3
:102C000008BD0448064AFFF717FF0028F2D0806984
:102C100008BD00BFCCEDFF1F1EA9000025A90000C4
:102C200039A90000034670B50D480D4616461946F1
:102C30000C4AFFF701FF044610B90B4900F0E6F813
:102C400021460A4A0648FFF7F7FE8369084A3360BF
:102C500003482146FFF7F0FE83692B6070BD00BF7B
:102C6000CCEDFF1F3EA9000043A9000052A90000BF
:102C700058A9000007B50023694601AA00930193F3
:102C8000FFF7D0FF0198FFF74FFF01900098FFF783
:102C90004BFF064900900246019B032000F0B6F866
:102CA0009DE80300FFF74AFF0EBD00BF5DA90000CD
:102CB00073B5274D286803689B689847002845D05E
:102CC00001202449244E00F0A1F829682348FFF789
:102CD0002DFE04462146224A2048FFF7AAFE33680B
:102CE00020495B683046012298473046FDF716FDC3
:102CF0003CB920461C4900F089F82868FFF7BAFC67
:102D000024E00120194900F081F8194B1B68019358
:102D1000019A184B20461A60FFF764FF0428054605
:102D200009D005280BD001280CD12046FFF7A2FFBF
:102D3000114B1D7006E02046FFF748FF02E02046D9
:102D4000FFF74AFF05482146FFF766FA7CBD00BF42
:102D5000D8EDFF1F79A90000A0EDFF1FCCEDFF1FEC
:102D6000DCEDFF1F8BA900008DA90000A0A90000C9
:102D700058EBFF1FF8EEFF1FF4EEFF1F13B5002402
:102D800022462346009407482146FDF733FC064BB4
:102D9000064A1C711A60064A9A604FF0FF32DA60E8
:102DA0001CBD00BFD0EDFF1FDCEDFF1FC8A8000059
:102DB000A0EDFF1F38B50446FFF710FA0546204680
:102DC000FDF7ACFC281838BD0EB40C4B1B689842BC
:102DD00003B50FDC04AB4FF48071039A08480193EC
:102DE00004F0A6FA06490748FFF7F8F9054806492E
:102DF000FFF7E0FFBDE80C4003B07047B0E4FF1FF1
:102E0000ECEDFF1FA0EDFF1F8BA900000EB40E4BD1
:102E10001B7803B59BB10D4B1B6898420FDC04ABCC
:102E20004FF48071039A0A48019304F081FA08492B
:102E30000848FFF7D3F907480749FFF7BBFFBDE88C
:102E40000C4003B0704700BFB4E4FF1FB0E4FF1FA5
:102E5000ECEDFF1FA0EDFF1F8BA9000010B540F2A5
:102E600083642046FDF7E8FF2046FEF753F9FFF79D
:102E7000FDFD0748FFF796FE00F030F80D20FFF744
:102E80008DFE04490020BDE81040FFF79DBF00BF44
:102E900074EAFF1FB5A9000007B5FFF709FF074B4C
:102EA0001B680193064B019A1B6803F56A43603364
:102EB000934201D200F0BAF80EBD00BF58EBFF1FDD
:102EC000F8EEFF1F07B5002100910A460B460248A5
:102ED000FDF790FB0EBD00BFECEEFF1F0120FDF7DC
:102EE00081BCFFFF08B5024605490120FFF78EFFB0
:102EF000044B18680146BDE80840FFF71FBE00BF3D
:102F0000CDA90000BCE4FF1F08B502460649012018
:102F1000FFF77CFF054B1968054B1B68C81AC918D9
:102F2000BDE80840FFF70ABEDFA90000BCE4FF1FB0
:102F3000B8E4FF1F08B5024606490120FFF766FF07
:102F4000054B1968054B1B68C818C91ABDE808402D
:102F5000FFF7F4BDF5A90000BCE4FF1FB8E4FF1FB4
:102F600008B5024605490120FFF750FF044B1868D9
:102F700040420146BDE80840FFF7E0BD0CAA000052
:102F8000BCE4FF1F08B5024607490120FFF73EFFDA
:102F9000064B1868064B1B6819184942C01ABDE851
:102FA0000840FFF7CBBD00BF1FAA0000B8E4FF1F19
:102FB000BCE4FF1F08B5024607490120FFF726FFC2
:102FC000064A074B11681B6858184042C91ABDE8E9
:102FD0000840FFF7B3BD00BF36AA0000B8E4FF1FEA
:102FE000BCE4FF1F08B5024605490120FFF70EFFAC
:102FF000044B18684142BDE80840FFF79FBD00BF81
:103000004EAA0000BCE4FF1F08B502460549012096
:10301000FFF7FCFE044B19684842BDE80840FFF783
:103020008DBD00BF64AA0000BCE4FF1F37B5274B6D
:103030001B680093264B009A1B689A4245D90120D1
:103040002449FFF7E3FE08210120FDF7FEFB0A21DA
:1030500005460120FDF7F9FB04462A4603201E49D8
:103060002346013DFFF7D2FE072D24D8DFE805F007
:1030700004080C1014181C202046FFF733FF1AE038
:103080002046FFF741FF16E02046FFF753FF12E00E
:103090002046FFF765FF0EE02046FFF773FF0AE0CA
:1030A0002046FFF787FF06E02046FFF79BFF02E080
:1030B0002046FFF7A9FF054B1B680193019B4FF4C6
:1030C0007A7202FB0434024B1C603EBD58EBFF1FBA
:1030D000FCEEFF1F81AA00008EAA00002DE9F04F30
:1030E0008BB01F4680468946164600F091F94EF295
:1030F000C04BC1F6FF7B9BF90030013304460D46FF
:1031000004D03046394600F0F3FF20B92046294666
:103110000BB0BDE8F08F4046494600F0E9FF82461B
:1031200020BB304639460022002301F057FD00281D
:10313000ECD09BF900104AF6A8230122C0F200034C
:103140008DE80C0000220023B1F1FF3F18BF0229D7
:10315000C3F6F073CDF820A0CDE90289CDE904676C
:10316000CDE906232DD1DDE90645CFE740464946A6
:103170000022002301F032FD00282FD030463946CE
:103180000022002301F02AFD002861D09BF90020D5
:103190004AF6A823C0F20003012100208DE80A00AE
:1031A000CDE90289002300210893CDE90467CDE928
:1031B000060132B100230022C3F6F073CDE90623E5
:1031C000D1E7684600F0BCFF002870D0089B002BB8
:1031D000C9D001F08DFD089B0360C4E72046294655
:1031E00000F080FF8246002866D020462946002253
:1031F000002301F0F3FC002888D04046494600F047
:1032000071FF002882D03046394600F06BFF00285D
:103210003FF47CAF9BF900204AF6A8230421C0F2BA
:10322000000300208DE80A0000230021022A0893F1
:10323000CDE90289CDE90467CDE9060169D0684688
:1032400000F07EFF002864D0089B002B8BD0C0E7E5
:103250003046394600F046FF00283FF457AF30466D
:1032600039460022002301F0C3FC00283FF44EAF92
:103270009BF800104AF6A823C0F200030122CDE912
:1032800002898DE80C000023CDE904670022089331
:103290000023002936D1CDE90623684600F050FF0F
:1032A0000028D1D101F024FD21230360CCE701F0F7
:1032B0001FFD2123036089E74046494600F012FFC5
:1032C000002892D03046394600F00CFF00288CD000
:1032D0002046294600F00CFF00BB9BF800404AF650
:1032E000A823C0F200030122089000218DE80C0001
:1032F0000020CDE90289CDE90467002C63D1CDE936
:103300000601CAE70229CFF6F073CDE90623C9D03A
:10331000C3E701F0EDFC2223036095E79BF9001061
:103320004AF6A8220320C0F20002CDF820A08DE8C2
:1033300005004046CDE90289CDE90467E9B94FF6B9
:10334000FF754946002200234FF06044C4F2EF7538
:10335000CDE9064501F04CFC00283ED19BF9003038
:10336000022B05D0684600F0EBFE00287FF42EAF5C
:1033700001F0BEFC2223036028E700254946002215
:1033800000230024C7F6F075CDE9064501F030FCB6
:103390000028E3D000230022C3F6E073304639460C
:1033A00001F0B4F904460D4600F0D2FE22462B4649
:1033B00001F014FC0028D1D100230022CFF6F073D5
:1033C000CDE90623CAE702460B4601F0C9FA022CF2
:1033D000CDE906013FF466AF5FE700230022C3F6A4
:1033E000E0733046394601F091F904460D4600F08D
:1033F000AFFE22462B4601F0F1FB0028AED14FF67E
:10340000FF734FF06042CCF2EF73CDE90623A5E7DE
:103410002DE9F04F91B023F000478B460D46049103
:1034200057EA0201914682461E460446944680466B
:1034300000F08E8000212BF00040C7F6F071029062
:10344000884211DD029901F1404909F5801959EAD4
:10345000080840F082800026C146C3F6F076484650
:10346000314611B0BDE8F08F14BF00200120069056
:10347000BAF1000F0CBF002000F001000028E1D1DC
:103480008F42DFDC14BF00200120002A0CBF002186
:1034900000F001010029D5D1049A5C461D46002A9E
:1034A00064DB0E91BCF1000F14D1002840F0828043
:1034B0000023C3F6F0739F4200F0B880B5F1804F4F
:1034C00004BF504659463CD00023C3F6E0739D42EA
:1034D00000F0C0835046594600F000FE8C46B8F11B
:1034E000000F0BD1069B0299002908BF43F001038E
:1034F000002B76D1C3F6F073994272D0049B0E99DB
:103500004FEAD37808F1FF3851EA080100F08980CA
:103510000023C4F2E0139F4240F3A6800023C4F2CC
:10352000F0339F4240F330844FF6FF73029AC3F6A4
:10353000EF739A4240F39E83002D4EDD48A1D1E9FE
:10354000000102460B4601F0E1F881460E4686E78F
:1035500000268946C3F6F07681E74AF63830C0F295
:10356000000011B0BDE8F04F00F0ECBD4FF6FF7366
:10357000C4F23F339F426ADC4FF6FF73C3F6EF732A
:103580009F428EDD3B1540F21342934240F38B8401
:10359000C3F5866303332CFA03F202FA03F363459F
:1035A00002BF02F00103C3F102030E933FF47AAFAE
:1035B000002176E7029A02F1404303F5801353EAB3
:1035C000080300F051834FF6FF73C3F6EF739A427E
:1035D00040F3B283002DBFF642AF4FF000094E46D4
:1035E0003DE7002DA8BF6646C0F24284002CA8BF6C
:1035F0008146BFF634AF029A0E9902F1404303F5BB
:103600008013194340F05F848046024633463146BA
:1036100000F0C8FE02460B4601F0A2F981460E46B4
:103620001DE75046594652465B46F1E7002DA4BFC0
:10363000D1465E46BFF613AF002152460020C3F6C6
:10364000F0715B4601F08CF981460E4607E70223D4
:103650000E93BCF1000F3FF428AF3BE7AFF30080BF
:103660009C7500883CE4377E029B0021B3F5801FE7
:103670000BDA002361460022C4F2403301F046F821
:103680008C466FF03401CDF808C0029A002522F074
:103690007F43141549F68E0223F47003C0F203022F
:1036A000934243F07F57A4F2FF340C440F9447F445
:1036B00040142F460FDD4BF279620127C0F20B0256
:1036C0004FF48025934206DD00250F9BA4F580145E
:1036D0002F4601330F934AF6B0210246C0F2000193
:1036E000234601EBC707CDE90823D7E90001CDE95F
:1036F0000A0110462146DDE90A2300F053FEDDE908
:103700000A2382468B46DDE9080100F04DFE0B4698
:1037100000210246C3F6F071002001F021F9CDE945
:103720000C015046DDE90C23594600F0EFFFCDE9CE
:1037300006016110DDE9062341F00051002001F58A
:103740000021CDE904236B1804900022DDE9040177
:1037500014461D46CDE9020100F0D8FF02460B4693
:103760005046594600F01EFEDDE90A2382468B468C
:103770002046294600F016FE02460B46DDE9080108
:1037800000F010FE02460B46DDE9020100F0BEFF2C
:1037900002460B465046594600F004FEDDE90C2374
:1037A00000F0B4FF82468B46DDE9060102460B4677
:1037B00000F0ACFF02460B4604460D4600F0A6FFA3
:1037C000A3A3D3E90023CDE908012046294600F050
:1037D0009DFFA1A3D3E9002300F0E6FD22462B467E
:1037E00000F094FF9EA3D3E9002300F0DDFD224604
:1037F0002B4600F08BFF9CA3D3E9002300F0D4FDFF
:1038000022462B4600F082FF99A3D3E9002300F063
:10381000CBFD22462B4600F079FF97A3D3E9002386
:1038200000F0C2FD02460B46DDE9080100F06EFF24
:10383000DDE9062304460D46DDE9020100F0B4FD92
:1038400052465B4600F062FF22462B4600F0ACFD7C
:10385000CDE90801DDE9020102460B4600F056FF02
:1038600000220023C4F20803CDE90A0100F09CFD08
:10387000DDE9082300F098FD0D4604992B460C461F
:10388000DDE90201224600F041FF22462B46CDE948
:1038900002015046594600F039FF00230022C4F2CD
:1038A000080382468B462046294600F07BFDDDE971
:1038B0000A2300F077FD02460B46DDE9080100F01F
:1038C00071FDDDE9062300F021FF02460B4650465C
:1038D000594600F069FD82468B4652465B46DDE95B
:1038E000020100F061FD049A104665A3D3E90023AC
:1038F00004460D4600F00AFF63A3D3E90023CDE997
:1039000006012046294600F001FFDDE90223CDE94A
:1039100008012046294600F045FD02460B46504668
:10392000594600F03FFD5AA3D3E9002300F0EEFE14
:1039300002460B46DDE9080100F036FDD7E9042315
:1039400000F032FD82460F988B4600F079FE524619
:103950005B4604460D46D7E90801CDE90201DDE9E1
:10396000060100F021FDDDE9022300F01DFD2246E5
:103970002B4600F019FD049A2B46104622460446B9
:103980000D4600F00FFDDDE9022300F00BFDDDE93F
:10399000062300F007FD02460B465046594600F04C
:1039A00001FD82468B460E98431E53EA080340F001
:1039B000BC8100230022CBF6F073CDE9042333460B
:1039C000002231464846CDE9022300F0EBFC2246B6
:1039D0002B4600F09BFE52465B46CDE90601314680
:1039E000484600F093FE02460B46DDE9060100F072
:1039F000DBFC22462B4682468B46DDE9020100F0C5
:103A000085FE04460D465046594622462B4600F098
:103A1000CBFC4FF6FF7CC4F28F0C614506460F4687
:103A2000884640F32B8101F13F4303F5E003034354
:103A300040F0298218A3D3E900235046594627F0C5
:103A4000004900F0B1FC22462B46CDE9020127E0F7
:103A5000EF4E454A287ECA3F65DBC9934A86CD3F73
:103A600001411DA96074D13F4D268F515555D53F59
:103A7000FFAB6FDBB66DDB3F033333333333E33FF1
:103A8000000000E009C7EE3FF5015B14E02F3EBEE9
:103A9000FD033ADC09C7EE3FFE822B654715973CD4
:103AA0003046394600F07EFC02460B46DDE9020155
:103AB00001F0BCF8002840F0E6810023C3F6E07373
:103AC0009945DCBF4FF0000CCDF808C000F3F4803E
:103AD00000269DA3D3E9002330463946CDF804C023
:103AE00000F014FE22462B46804689463046394671
:103AF00000F058FC02460B465046594600F052FC76
:103B000093A3D3E9002300F001FE93A3D3E900239C
:103B100004460D463046394600F0F8FD02460B4695
:103B20002046294600F040FC04460D4622462B461E
:103B30004046494600F038FC42464B4682468B469A
:103B400000F030FC02460B462046294600F02AFCD5
:103B500052465B46804689465046594600F0D6FD9F
:103B60007FA3D3E9002304460D4600F0CFFD7EA3DA
:103B7000D3E9002300F016FC22462B4600F0C6FDD8
:103B80007BA3D3E9002300F00FFC22462B4600F074
:103B9000BDFD79A3D3E9002300F004FC22462B46A7
:103BA00000F0B4FD76A3D3E9002300F0FDFB22462C
:103BB0002B4600F0ABFD02460B465046594600F03E
:103BC000F1FB04460D4622462B465046594600F06E
:103BD0009DFD00224FF0804306460F4620462946B1
:103BE00000F0E0FB02460B463046394600F0B8FED6
:103BF00042464B4604460D465046594600F086FD67
:103C000042464B4600F0D0FB02460B462046294672
:103C100000F0C8FB52465B4600F0C4FB0B46002197
:103C20000246C3F6F071002000F0BCFBDDF804C0D2
:103C30000CEB01040B46B4F5801F02460D46A8BFED
:103C40002346C0F25E81DDE9040100F05FFD81469C
:103C50000E4604E4002CFFF63DAC5046594611B028
:103C6000BDE8F04F00F074B900269946C3F6F0762F
:103C7000FFF7F5BB002DBFF6B0AC5FE44CF6FF33A9
:103C800021F00049C4F2900399457FF716AF4FF435
:103C90005053C3F66F73CB18034340F01A8122468A
:103CA0002B4600F07FFB02460B465046594600F07B
:103CB000A9FF002840F00D814FEA29534FF48011ED
:103CC000A3F2FE334FF6FF7641FA03F1C0F20F067E
:103CD0004144002221F07F47C1F30A5027F47007C6
:103CE000A0F2FF3E47F48017C0F58260B8F1000FE4
:103CF00046FA0EF600F1030C21EA060347FA0CFC23
:103D0000CDF808C0C0F2F9802046294600F04AFBF1
:103D100004460D462246504659462B4600F044FBC9
:103D2000029A4FEA025C0F46D2E600210020C3F659
:103D3000F071CDE9040142E6002DBFF64EAC06F16C
:103D40000046FFF78CBB00BF00000000432EE63F9B
:103D5000EF39FAFE422EE63F396CA80C615C20BEBA
:103D6000D0A4BE726937663EF16BD2C541BDBB3E81
:103D70002CDE25AF6A56113F93BDBE166CC1663F5F
:103D80003E5555555555C53F4FF6FE730299C3F63E
:103D9000EF7399427FF76EAF0023029AC3F6F07378
:103DA0009A423FF7C9AB002361460022C3F6F07385
:103DB00000F0F8FA5AA3D3E9002304460D4600F0B8
:103DC000A5FC59A3D3E9002382468B462046294609
:103DD00000F09CFC22462B46CDE9020120462946F4
:103DE00000F094FC00230022C3F6D073CDE9040157
:103DF0002046294600F08AFC02460B464CA1D1E938
:103E0000000100F0CFFA22462B4600F07FFC0B4663
:103E100000210246C3F6E071002000F0C3FA02461A
:103E20000B46DDE9040100F071FC43A3D3E9002354
:103E300000F06CFC02460B46DDE9020100F0B2FA2C
:103E4000CDE902015046DDE90223594600F0ACFA03
:103E500052465B46002004460D4600F0A3FA024697
:103E60000B46DDE9020100F09DFA82468B469AE599
:103E700000210246C3F6F0710020634600F070FD99
:103E80000E46FFF7B3BB2EA3D3E90023DDE90401FF
:103E900000F03CFC2AA3D3E9002300F037FC814664
:103EA0000E46FFF7DCBABCF1000F22D1C3F58263E6
:103EB000DA1C47FA02F303FA02F2BA4227D00023CF
:103EC0000E93FFF7F2BA0E9A8146012A7FF4C7AA31
:103ED00035E71DA3D3E90023DDE9040100F016FC5A
:103EE00019A3D3E9002300F011FC81460E46FFF729
:103EF000B6BA00230E93FFF7EDBA6146494202912C
:103F000002E7029A00F0BCF902460B469BE603F07A
:103F10000103C3F102030E93FFF7C7BAAFF30080AA
:103F2000000000604715F73F44DF5DF80BAE543EDC
:103F3000555555555555D53FFE822B654715F73FCD
:103F40009C7500883CE4377E59F3F8C21F6EA501CA
:103F50002DE9F8430027B946C7F6F077C7F6F079A0
:103F60000F404F4504460D4602460B460E4680461E
:103F700000F09980002977DD0F1500F0828026F08F
:103F80007F43A7F2FF3723F47003FA0743F480134B
:103F900044BF4FEAD8724FEA48084FF0000C48BFC0
:103FA00002EB430360464FEAD8727F1002EB4303F3
:103FB00016244FEA48024FF400114518D60F9D42CF
:103FC0004FEA4202DEBFC5EB030368188C44490880
:103FD000013C06EB4303F0D12026A0464FF0004100
:103FE0000EE081461B1A954288BF013B521B6418A4
:103FF0004846D50F49085200013E05EB430315D052
:10400000984201EB080503DB954298BF8342F0D14B
:1040100005F0004905EB0108B9F1004FE1D1B8F115
:10402000000FA8BF00F10109DCDADAE7134312D16F
:1040300066084FEA6C031CF0010F03F17F5318BFB1
:1040400046F0004603F50013344603EB07552046BF
:104050002946BDE8F883631C08BF0CF1010CE8D0C9
:1040600004F001031C19E3E721F000460643EED0FB
:1040700041BB0F464FEAD826153F4FEA4858002E5D
:10408000F8D016F4801319D176000133F102FBD574
:10409000C3F10101C3F1200228FA02F27F1816438E
:1040A00008FA03F86BE700F031FB02460B462046A6
:1040B000294600F079F904460D46C8E7202201217F
:1040C0000023E9E702460B4600F06CF902460B4676
:1040D00000F046FC04460D46B9E700BF21F0004160
:1040E000704700BF41F0004101F58010C00F7047DC
:1040F00050EA010201D102207047D0F1010238BF1D
:104100000022B1F1004F08BF0028F4D021F0004395
:104110004FF6FF71A3F58010C7F6DF71884201D812
:1041200004207047B3F5801F01D2032070470020A0
:10413000C7F6F070834214BF002002F00100704700
:104140000020704700210020C7F6F871704700BFBB
:10415000C1F30A5C02462DE9F041ACF2FF36CD0F07
:10416000132E82B00B4604460F4688463ADC002EDA
:1041700056DB4FF6FF71C0F20F0141FA06F101EA7A
:104180000300104329D049080B4053EA02040CD025
:104190004FF4802327EA0108132E0CBF4FF0004490
:1041A000002443FA06F648EA06084AF6E0212246C9
:1041B000C0F20001434601EBC505D5E900452046A4
:1041C000294600F0F1F822462B46CDE90001DDE951
:1041D000000100F0E7F802460B461046194602B00F
:1041E000BDE8F081332E07DDB6F5806FF5D100F024
:1041F000DBF802460B46F0E74FF0FF31ACF2134C10
:1042000021FA0CF10142E8D0490801421FBF4FF0EA
:10421000804320EA010443FA0CFC44EA0C04C4E79E
:1042200021F000410143D8D023F07F404AF6E0213D
:1042300020F47000C0F2000140EA020401EBC50165
:1042400060424FEA534E0443D1E90067240B3046E5
:1042500004F40024394644EA4E4300F0A5F83246FF
:104260003B46CDE90001DDE9000100F09BF80F4677
:1042700021F000410646024641EAC573ADE700BFA2
:10428000C1F30A532DE9F04104460D469046064617
:104290000F46C3B921F0004C5CEA000C29D0002382
:1042A0000022C4F2503300F031FA43F6B043CFF6A7
:1042B000FF73984504460D4606460F462BDBC1F3B7
:1042C0000A53363B05E040F2FF72934218BF09469D
:1042D00036D0434440F2FE729342C4BF22462B467E
:1042E00021DC002B09DD21F0FF4121F4E00141EA4E
:1042F000035520462946BDE8F08113F1350F26DA33
:104300004CF25033224698452B460CDC1AA1D1E9D9
:10431000000100F039F818A3D3E9002300F0F6F902
:1043200004460D46E5E716A1D1E9000100F02CF89E
:1043300013A3D3E9002300F0E9F904460D46D8E7BA
:104340002B46024600F030F804460D46D1E73633DE
:1043500021F0FF4121F4E001204641EA035500230A
:1043600029460022C3F6904300F0D0F904460D46DA
:10437000BFE700BFAFF3008059F3F8C21F6EA5017D
:104380009C7500883CE4377E10B421F0004203F0B5
:10439000004444EA020110BC704700BF81F00041B4
:1043A00002E000BF83F0004330B54FEA41044FEA1A
:1043B000430594EA050F08BF90EA020F1FBF54EAB5
:1043C000000C55EA020C7FEA645C7FEA655C00F051
:1043D000E2804FEA5454D4EB5555B8BF6D420CDD22
:1043E0002C4480EA020281EA030382EA000083EAA5
:1043F000010180EA020281EA0303362D88BF30BD45
:1044000011F0004F4FEA01314FF4801C4CEA11319A
:1044100002D0404261EB410113F0004F4FEA0333F9
:104420004CEA133302D0524263EB430394EA050F84
:1044300000F0A780A4F10104D5F1200E0DDB02FAF3
:104440000EFC22FA05F2801841F1000103FA0EF287
:10445000801843FA05F359410EE0A5F120050EF14D
:10446000200E012A03FA0EFC28BF4CF0020C43FA7E
:1044700005F3C01851EBE37101F0004507D54FF08B
:10448000000EDCF1000C7EEB00006EEB0101B1F5DB
:10449000801F1BD3B1F5001F0CD349085FEA300021
:1044A0004FEA3C0C04F101044FEA445212F5800F2C
:1044B00080F09A80BCF1004F08BF5FEA500C50F1C9
:1044C000000041EB045141EA050130BD5FEA4C0CAC
:1044D000404141EB010111F4801FA4F10104E9D135
:1044E00091F0000F04BF01460020B1FA81F308BF2C
:1044F0002033A3F10B03B3F120020CDA0C3208DDF8
:1045000002F1140CC2F10C0201FA0CF021FA02F1D2
:104510000CE002F11402D8BFC2F1200C01FA02F142
:1045200020FA0CFCDCBF41EA0C019040E41AA2BF67
:1045300001EB0451294330BD6FEA04041F3C1CDA2F
:104540000C340EDC04F11404C4F1200220FA04F04F
:1045500001FA02F340EA030021FA04F345EA0301F9
:1045600030BDC4F10C04C4F1200220FA02F001FABB
:1045700004F340EA0300294630BD21FA04F029463D
:1045800030BD94F0000F83F4801306BF81F48011D6
:104590000134013D4EE77FEA645C18BF7FEA655C49
:1045A00029D094EA050F08BF90EA020F05D054EA1B
:1045B000000C04BF1946104630BD91EA030F1EBF20
:1045C0000021002030BD5FEA545C05D14000494124
:1045D00028BF41F0004130BD14F580043CBF01F517
:1045E000801130BD01F0004545F0FE4141F47001FD
:1045F0004FF0000030BD7FEA645C1ABF19461046D8
:104600007FEA655C1CBF0B46024650EA013406BFD8
:1046100052EA033591EA030F41F4002130BD00BF97
:1046200090F0000F04BF0021704730B54FF4806454
:1046300004F132044FF000054FF0000150E700BFD5
:1046400090F0000F04BF0021704730B54FF4806434
:1046500004F1320410F0004548BF40424FF0000121
:104660003EE700BF42004FEAE2014FEA31014FEA64
:1046700002701FBF12F07F4393F07F4F81F06051B3
:10468000704792F0000F14BF93F07F4F704730B522
:104690004FF4607401F0004521F0004120E700BFB5
:1046A00050EA010208BF704730B54FF000050AE03C
:1046B00050EA010208BF704730B511F0004502D53D
:1046C000404261EB41014FF4806404F132045FEA3F
:1046D000915C3FF4DCAE4FF003025FEADC0C18BFE4
:1046E00003325FEADC0C18BF033202EBDC02C2F1DA
:1046F000200300FA03FC20FA02F001FA03FE40EA6C
:104700000E0021FA02F11444C1E600BF70B54FF06B
:10471000FF0C4CF4E06C1CEA11541DBF1CEA13554D
:1047200094EA0C0F95EA0C0F00F0DEF82C4481EAB5
:10473000030621EA4C5123EA4C5350EA013518BFD5
:1047400052EA033541F4801143F4801338D0A0FBC2
:1047500002CE4FF00005E1FB02E506F00042E0FB6F
:1047600003E54FF00006E1FB03569CF0000F18BF75
:104770004EF0010EA4F1FF04B6F5007F64F540741D
:1047800004D25FEA4E0E6D4146EB060642EAC621B0
:1047900041EA55514FEAC52040EA5E504FEACE2E1D
:1047A000B4F1FD0C88BFBCF5E06F1ED8BEF1004F20
:1047B00008BF5FEA500E50F1000041EB045170BD9C
:1047C00006F0004646EA010140EA020081EA0301E0
:1047D000B4EB5C04C2BFD4EB0C0541EA045170BDDC
:1047E00041F480114FF0000E013C00F3AB8014F156
:1047F000360FDEBF002001F0004170BDC4F100049F
:10480000203C35DA0C341BDC04F11404C4F120051F
:1048100000FA05F320FA04F001FA05F240EA02007A
:1048200001F0004221F0004110EBD37021FA04F6B0
:1048300042EB06015EEA430E08BF20EAD37070BD6A
:10484000C4F10C04C4F1200500FA04F320FA05F0C9
:1048500001FA04F240EA020001F0004110EBD370CB
:1048600041F100015EEA430E08BF20EAD37070BD3B
:10487000C4F1200500FA05F24EEA020E20FA04F314
:1048800001FA05F243EA020321FA04F001F00041C3
:1048900021FA04F220EA020000EBD3705EEA430E34
:1048A00008BF20EAD37070BD94F0000F0FD101F063
:1048B0000046400041EB010111F4801F08BF013C9C
:1048C000F7D041EA060195F0000F18BF704703F0DA
:1048D0000046520043EB030313F4801F08BF013D61
:1048E000F7D043EA0603704794EA0C0F0CEA13551D
:1048F00018BF95EA0C0F0CD050EA410618BF52EAD7
:104900004306D1D181EA030101F000414FF00000DC
:1049100070BD50EA410606BF1046194652EA4306EA
:1049200019D094EA0C0F02D150EA013613D195EA5E
:104930000C0F05D152EA03361CBF104619460AD1A6
:1049400081EA030101F0004141F0FE4141F47001B0
:104950004FF0000070BD41F0FE4141F4780170BDA0
:1049600070B54FF0FF0C4CF4E06C1CEA11541DBF05
:104970001CEA135594EA0C0F95EA0C0F00F0A7F807
:10498000A4EB050481EA030E52EA03354FEA013134
:1049900000F088804FEA03334FF0805545EA131347
:1049A00043EA12634FEA022245EA111545EA10650F
:1049B0004FEA00260EF000419D4208BF964244F1A6
:1049C000FD0404F5407402D25B084FEA3202B61AC5
:1049D00065EB03055B084FEA32024FF480104FF499
:1049E000002CB6EB020E75EB030E22BFB61A75460D
:1049F00040EA0C005B084FEA3202B6EB020E75EBA0
:104A0000030E22BFB61A754640EA5C005B084FEA07
:104A10003202B6EB020E75EB030E22BFB61A7546D4
:104A200040EA9C005B084FEA3202B6EB020E75EBDF
:104A3000030E22BFB61A754640EADC0055EA060EA0
:104A400018D04FEA051545EA16754FEA06164FEAE3
:104A5000C30343EA52734FEAC2025FEA1C1CC0D18F
:104A600011F4801F0BD141EA00014FF000004FF01C
:104A7000004CB6E711F4801F04BF01430020B4F1DD
:104A8000FD0C88BFBCF5E06F3FF6AFAEB5EB030C95
:104A900004BFB6EB020C5FEA500C50F1000041EB92
:104AA000045170BD0EF0004E4EEA113114EB5C045F
:104AB000C2BFD4EB0C0541EA045170BD41F4801132
:104AC0004FF0000E013C90E645EA060E8DE60CEA3A
:104AD000135594EA0C0F08BF95EA0C0F3FF43BAF57
:104AE00094EA0C0F0AD150EA01347FF434AF95EA0E
:104AF0000C0F7FF425AF104619462CE795EA0C0FF2
:104B000006D152EA03353FF4FDAE1046194622E7BE
:104B100050EA410618BF52EA43067FF4C5AE50EA98
:104B200041047FF40DAF52EA43057FF4EBAE12E788
:104B30004FF0FF3C06E000BF4FF0010C02E000BF69
:104B40004FF0010C4DF804CD4FEA410C7FEA6C5C4C
:104B50004FEA430C18BF7FEA6C5C1BD001B050EAEF
:104B6000410C0CBF52EA430C91EA030F02BF90EADA
:104B7000020F0020704710F1000F91EA030F58BF99
:104B8000994208BF90422CBFD8176FEAE37040F0FB
:104B9000010070474FEA410C7FEA6C5C02D150EA99
:104BA000013C07D14FEA430C7FEA6C5CD6D152EA54
:104BB000033CD3D05DF8040B704700BF8446104619
:104BC00062468C461946634600E000BF01B5FFF718
:104BD000B7FF002848BF10F1000F01BD4DF808EDE8
:104BE000FFF7F4FF0CBF012000205DF808FB00BFB9
:104BF0004DF808EDFFF7EAFF34BF012000205DF813
:104C000008FB00BF4DF808EDFFF7E0FF94BF01205F
:104C100000205DF808FB00BF4DF808EDFFF7CEFF60
:104C200094BF012000205DF808FB00BF4DF808ED9F
:104C3000FFF7C4FF34BF012000205DF808FB00BF70
:104C40004FEA410212F5001215D211D56FF47873B4
:104C5000B3EB625212D94FEAC12343F0004343EA57
:104C6000505311F0004F23FA02F018BF4042704732
:104C70004FF00000704750EA013005D111F00040BC
:104C800008BF6FF0004070474FF00000704700BF52
:104C90004A0011D212F5001211D20DD56FF47873BB
:104CA000B3EB62520ED44FEAC12343F0004343EA10
:104CB000505323FA02F070474FF00000704750EA5B
:104CC000013002D14FF0FF3070474FF000007047C5
:104CD00003460846194600F001B800BF30B4054647
:104CE0000C46134602202946224630BC02F032BB55
:104CF0004EF2C443C1F6FF731868704770B54AF6A8
:104D0000D4564AF6D455C0F20006C0F20005761B10
:104D1000B61007D0043D002455F8043F01349847ED
:104D2000A642F9D14AF6FC564AF6D455C0F200061E
:104D3000C0F20005761B06F047F8B61008D0043D17
:104D4000002455F8043F01349847A642F9D170BDBC
:104D500070BD00BF4EF2C4430146C1F6FF73186830
:104D600000F008B84EF2C4430146C1F6FF7318685C
:104D700003F0E8BB2DE9F04F01F10B04162C83B0D2
:104D8000074630D924F00704E30F8C422CBF1946A4
:104D900043F0010100292FD1384600F03DFCB4F565
:104DA000FC7F2ED24FEAD40C4EF2B856C1F6FF76F5
:104DB00006EBCC02D368934200F01182596803F1EC
:104DC0000808DA68384621F0030499681B195C6802
:104DD000CA6044F0010491605C6000F01FFC404632
:104DE00003B0BDE8F08F002310248C422CBF19467D
:104DF00043F001010029CFD00C234FF000083B60A5
:104E0000EDE75FEA542C04BF4FEAD40C4FEA4C059F
:104E100040F08F804EF2B856C1F6FF7606EB85055E
:104E2000EB689D4206D10DE0002A80F25581DB68D7
:104E30009D4207D0596821F003010A1B0F2AF3DDB8
:104E40000CF1FF3C0CF1010C4EF2B8523369C1F683
:104E5000FF7202F1080E734508BFD2F8049022D009
:104E6000586820F00300011B0F2900F384810029FA
:104E7000C2F814E0C2F810E066DAB0F5007F80F006
:104E80004E81C1084FF0010802EBC100891008FAF9
:104E900001F851688568D86048EA0109C2F80490B1
:104EA0009D60EB60836001224FEAAC0302FA03F3DA
:104EB0004B4554D819EA030F0DD193402CF0030C45
:104EC00019EA030F0CF1040C05D15B000CF1040C82
:104ED00019EA030FF9D006EBCC09E0464846C26850
:104EE000904207D15BE1002980F28381D268904231
:104EF00000F05581556825F00305291B0F29F2DDC7
:104F000090461319D56844F0010058F8084F41F055
:104F1000010C50603846C3F804C0E560AC607361B2
:104F20003361C3F80CE0C3F808E0595000F076FB99
:104F300055E7BCF1040F00F2DE804FEA941C0CF13F
:104F4000380C4FEA4C0565E71A1803F10808384693
:104F5000536843F00103536000F060FB3FE7B5681E
:104F60006B6823F0030A544504D8C4EB0A030F2BE3
:104F700000F3A4804EF60079D6F80814C1F6FF7944
:104F800005EB0A020131D9F80030234408BF03F1D0
:104F9000100B06D003F580530F3323F47F6323F007
:104FA0000F0B38465946019200F020FD019A411C32
:104FB000804600F06881824200F23181D9F80430E5
:104FC00042455B44C9F8043000F06681D6F8081405
:104FD0004EF2B850C1F6FF70013117BFC2EB0802A4
:104FE000C0F808849B18C9F8043018F00703384645
:104FF0001FBFC3F10802C3F58053904403F10802B8
:1050000008EB0B0308BF4FF480521B051B0DC3EBCD
:10501000020B594600F0EAFC431C00F04981C8EB42
:105020000001594441F00101D9F80430B5424EF66F
:105030000072C6F808805B44C1F6FF72C8F804101D
:10504000C9F8043018D0BAF10F0F40F20B81AAF161
:105050000C00696820F007004FF0050C05EB000E0E
:105060000F2801F0010140EA01016960CEF804C097
:10507000CEF808C000F220814EF60072D9F82C104C
:10508000C1F6FF72B5688B42D9F8301088BFD36281
:105090004EF60072C1F6FF728B4288BF13636A68D6
:1050A00022F003029442C4EB020301D80F2B05DC6B
:1050B00038464FF0000800F0B1FA90E62A1943F0A4
:1050C000010344F0010438466C6005F108085360A0
:1050D000B26000F0A3FA82E65918DA689C68384694
:1050E0004D6803F1080845F00105E26094604D60E9
:1050F00000F094FA73E6BCF1140F9CBF0CF15B0C4A
:105100004FEA4C057FF686AEBCF1540F00F2938057
:105110004FEA143C0CF16E0C4FEA4C057AE6420A59
:10512000042A75D9142A9CBF02F15B094FEA49058C
:1051300008D9542A00F2C9804FEA103909F16E09E2
:105140004FEA490506EB85054EF2B858C1F6FF78DF
:10515000AA68AA4279D0516821F00301884202D29C
:1051600092689542F7D1D068D6F80490D8609A60DA
:10517000D360836097E61D1941F00106556144F044
:105180000104156138465C6003F10808C5F80CE0BD
:10519000C5F808E06E60695000F040FA1FE608F1BB
:1051A0000108083018F0030F7FF499AE4A461CF04E
:1051B000030FA2F108010CF1FF3C00F09E80126881
:1051C0008A42F4D072685B0093423FF6C8AE002B6F
:1051D0003FF4C5AE1A4200F09580C4467BE603F169
:1051E00008025B699A4208BF0CF1020C3FF42CAE36
:1051F000E4E590465519D368384658F8082F696891
:10520000D36041F001019A60696000F007FAE6E5B9
:105210004FEA901909F138094FEA490592E7B5427A
:105220004EF2B853C1F6FF733FF4C8AE9D686A688A
:1052300022F0030236E7BCF5AA7F19D84FEAD43C26
:105240000CF1770C4FEA4C05E4E50125D8F8041081
:105250004FEAA909104605FA09F545EA0109C8F817
:10526000049083E701234546C8F80430002219E77B
:1052700040F254539C450BD84FEA944C0CF17C0CF3
:105280004FEA4C05C6E5B5686A6822F0030209E7F3
:10529000FC254FF07E0CBDE51105090D00297FF4BA
:1052A00095AEB2680BEB0A0141F001015160E3E6F3
:1052B00001214FF0000BB7E6384605F108010192D5
:1052C00003F040F9019A5368D6E6B2F5AA7F06D8F2
:1052D0004FEAD03909F177094FEA490532E740F240
:1052E0005451FC258A424FF07E099EBF4FEA9049F7
:1052F00009F17C094FEA490524E7726822EA0302B2
:10530000726060E75B0008F1040863E7032A2DE997
:10531000F00F09D82AB10023CC5CC4540133934266
:10532000FAD1BDE8F00F7047830702440ED0441C49
:105330004D1C15F8017C04F0030623460134294670
:10534000013504F8027C002EF3D100E0034611F091
:1053500003046DD0D71A0D1B032F2E6819DDC4F17D
:10536000040C4FEAC4081C1D4FEACC0C55F8047F0E
:10537000C4EB0209234604310434B9F1030F26FAC1
:1053800008FA07FA0CFB3E464BEA0A0744F8087C89
:10539000ECDC9A42C5D901330131013211F8014CDC
:1053A00001330131934203F8024CF7D1B9E70C689D
:1053B0004033403143F8404C51F83C4C43F83C4CAE
:1053C00051F8384C43F8384C51F8344C43F8344CCD
:1053D00051F8304C43F8304C51F82C4C43F82C4CDD
:1053E00051F8284C43F8284C51F8244C43F8244CED
:1053F00051F8204C43F8204C51F81C4C43F81C4CFD
:1054000051F8184C43F8184C51F8144C43F8144C0C
:1054100051F8104C43F8104C51F80C4C43F80C4C1C
:1054200051F8084C43F8084C51F8044C43F8044C2C
:10543000D41A3F2CBBDC11E00C681033103143F858
:10544000104C51F80C4C43F80C4C51F8084C43F8F4
:10545000084C51F8044C43F8044CD41A0F2CEBDCE4
:10546000032C96DD1C1D0D1D55F8047C161B2346D0
:10547000294604340435032E44F8087CF4DC88E71C
:105480008842F0B411D98C18A0420ED28518531E50
:105490004AB121462A4611F8014D013BB3F1FF3FC5
:1054A00002F8014DF7D1F0BC70470F2A47D941EA05
:1054B00000039B0745D10C4603461546266810336A
:1054C0001034103D0F2D43F8106C54F80C6C43F859
:1054D0000C6C54F8086C43F8086C54F8046C43F8EE
:1054E000046CEBD8A2F1100502F00F0425F00F05B3
:1054F0001035032C00EB0503294424D9A4F1040C36
:105500001D460C464FEA9C0C01EB8C07043754F8FF
:10551000046BBC4245F8046BF9D10CF1010402F0B4
:105520000302A40009191B19002ABCD001399A18DA
:1055300011F8014F03F8014B9342F9D1B3E7034649
:10554000F2E70346F2E72246EEE700BF032AC9B2BC
:1055500070B408D82AB10346121803F8011B93420D
:10556000FBD170BC70478307024409D0441C04F08F
:105570000305234604F8011C0134002DF7D100E097
:105580000346D51A01EB01243F2D04EB04442CDD26
:105590001C604033D51A43F83C4C3F2D43F8384C3F
:1055A00043F8344C43F8304C43F82C4C43F8284C27
:1055B00043F8244C43F8204C43F81C4C43F8184C57
:1055C00043F8144C43F8104C43F80C4C43F8084C87
:1055D00043F8044CDCDC08E01C601033D51A43F8B7
:1055E0000C4C43F8084C43F8044C0F2DF4DC032D0D
:1055F00008DD1D1D561B45F8044C032E2B4605F1F6
:105600000405F7DC9A42ACD90133013203F8011CDE
:1056100001339342FAD1A4E7704700BF704700BF3F
:105620002DE9F04F0C4683B081461746002900F063
:105630001C8107F10B05FFF7EFFF54F8042C162D22
:10564000A4F1080A22F0030675D8102100230D46A4
:10565000BD4238BF43F00103002B40F00C818E4265
:105660006EDA4EF2B85B0AEB0600C1F6FF7BDBF8A0
:1056700008E0864500F00481D0F804C02CF0010851
:105680008044D8F8048018F0010F1CBF9C46604687
:105690006FD0D30700F1C38054F8083CC3EB0A0372
:1056A0005A6822F003029219019200286CD07045CA
:1056B00000F037810CEB0208884565DBC1681F46A6
:1056C0008068321F242A8860C16057F8080FD968A3
:1056D000C160886000F27881132A9CBF3946204659
:1056E0001FD921681B2A98BF04F1080099606168DE
:1056F000D96098BF03F1100113D9A168242A14BFFF
:1057000004F1100004F118001961E168596111BF3A
:1057100003F11801226903F120019A6104BF626953
:10572000DA6102683C460A609A4642684A608268CA
:105730008A605A6805E025F007052946EB0F87E7E0
:10574000B046C5EB08030F2B55D80AEB080302F04F
:10575000010242EA0802CAF804205A6842F0010233
:105760005A6048462746FFF759FF384603B0BDE860
:10577000F08F2CF0030C0CEB0608884589DBC3681E
:105780008168CB609960DCE7019A8A4247DB1F465B
:10579000D968321F57F8080F242AC160886000F2C8
:1057A000B180132A9CBF394620461FD921681B2A85
:1057B00098BF04F1080099606168D96098BF03F14F
:1057C000100113D9A168242A14BF04F1100004F1B8
:1057D00018001961E168596111BF03F118012269CC
:1057E00003F120019A6104BF6269DA6102683C46F4
:1057F000DDF8048097E70AEB050102F00102CE18FC
:10580000154343F00103CAF804504B6048467368DF
:10581000083143F00103736002F094FEA1E73946BA
:105820004846FFF7A7FA0746D8B154F8042CA0F170
:10583000080122F001035344994200F0BF80321F57
:10584000242A6AD8132A9CBF0346224639D81168F5
:1058500019605168596092689A604846214602F082
:1058600071FE4846FFF7DAFE7FE7114603B0BDE858
:10587000F04FFFF77FBA0C230027C9F8003074E718
:10588000DEF8043005F1100023F0030C0CEB0603E6
:105890008342B8BF7046FFF6FCAE0AEB05025B1B05
:1058A00043F0010348465360274654F8043CCBF8C4
:1058B000082003F001031D4344F8045CFFF7AEFE2B
:1058C00053E723681B2A98BF04F10802036063684A
:1058D000436098BF00F10803B9D9A368242A14BF14
:1058E00004F1100204F118028360E368C36011BF81
:1058F00000F11003216900F11803016104BF61691F
:105900004161A4E7214638460093FFF7B9FD9DE8C1
:1059100008013C469A465A6813E72146FFF7B0FD56
:105920009BE7019805F110020CEB00089045FFF68B
:105930002BAF1F46D968321F57F8080F242AC160C1
:1059400088604BD8132A9CBF3A4621461FD921684C
:105950001B2A98BF03F1100299606168D96098BF53
:1059600004F1080113D9A168242A14BF03F1180215
:1059700003F120021961E168596111BF04F11001BE
:10598000206904F11801986104BF6069D861086852
:10599000106048685060896891605A19C5EB080129
:1059A00041F00101484651605968CBF8082001F0E8
:1059B00001010D435D60FFF731FED6E650F8043C6F
:1059C00023F00308B044BCE6214638460093FFF7B5
:1059D00057FD009B3C469A465A68B2E63846214637
:1059E0000093FFF74DFD009BD7E700BF38B54FF29E
:1059F0004404C1F6FF740546084600232360FAF705
:105A00008FFF431C00D038BD2368002BFBD02B60D8
:105A100038BD00BF4EF6C813C1F6FF7370B41D68E1
:105A200010F8013BEC181A46647804F00304012CCA
:105A300011F8014B08BF03F120022E192346767896
:105A400006F00306012E08BF04F12003D21A01D18B
:105A5000002BE5D1104670BC704700BF80EA010200
:105A600012F0030F40F03A8010F0030220F0030020
:105A700021F0030150F804CB08BF51F8043B0DD0CE
:105A800082F003024FEAC2026FF07F4323FA02F270
:105A900051F8043B4CEA020C43EA0203ACF1013238
:105AA0009C4501BF22EA0C0212F0803F50F804CB63
:105AB00051F8043BF2D04FEA0C604FEA1C2C01284D
:105AC00028BFB0EB036F08BF1B0AF4D003F0FF033D
:105AD0004FEA1060A0EB0300704700BF10F0030F07
